:100000000C9446000C9465000C9465000C946500FB
:100010000C9465000C9465000C9465000C946500CC
:100020000C9465000C9465000C9465000C946500BC
:100030000C9465000C9465000C9465000C946002AF
:100040000C9465000C9465000C9465000C9465009C
:100050000C9465000C9465000C9465000C9465008C
:100060000C9465000C9465000C9465000C9465007C
:100070000C9465000C9465000C9465000C9465006C
:100080000C9465000C9465000C94650011241FBE4F
:10009000CFEFD0E1DEBFCDBF11E0A0E0B1E0EEEDEB
:1000A000F7E000E00BBF02C007900D92AE30B10741
:1000B000D9F721E0AEE0B1E001C01D92AB33B20749
:1000C000E1F70E94CF020C94ED030C9400008FEF37
:1000D00087BB82B980EF84BB08958DB181658DB9EE
:1000E000709A089580B7886080BF87B7826087BFA5
:1000F00083B7896083BF80E281BF08958FB9779B02
:10010000FECF8FB108951E981E9A1FB8779BFECF21
:100110008FB108958FB9779BFECF8FB1C09AC098E9
:100120000895482FE82FF0E099B3EE0FFF1FEC5D24
:10013000FE4F20813181220F331F306E892F90E0D6
:1001400002C0959587954A95E2F781709927282BEB
:10015000392B3183208381E02115304F09F080E075
:100160000895CF93DF93C5B3DBB31ABA8FEF8BBB80
:1001700085B3806785BBE4E2F1E060E070E080E099
:10018000A1E0B0E005C06F5F7F4F6830710521F1DD
:1001900099B320813181220F331FA901506E292F7D
:1001A00030E0062E02C0359527950A94E2F72170BB
:1001B0003327242B352B219331932115304F19F7F9
:1001C0009D01062E01C0220F0A94EAF7822B6F5F71
:1001D0007F4F68307105E1F69FEF9ABBDBBBC5BB73
:1001E000DF91CF910895833079F11092170181301A
:1001F000A1F1811140C080911901813009F459C0E9
:1002000080911901823099F1633019F11092140133
:10021000613061F061113FC080911801813009F4B3
:100220004BC080911801823059F0089580911801D7
:10023000833011F4609312018091180181112AC05A
:1002400081E080931301089581E08093170163306A
:10025000E9F681E08093140108959091190193309B
:1002600011F480931501809119018111CDCF81E0A6
:1002700080931601C9CF823039F68091190181111E
:1002800024C081E08093150180911901833009F029
:10029000BBCFEDCF08956230F1F480911801811148
:1002A0000EC081E08093120180911801833041F2E9
:1002B000089580931501A4CF80931201B2CF80914D
:1002C0001801833009F4BCCF08958091190183305F
:1002D00009F09ACFCCCF0895FC01318197E639021D
:1002E000212D11242595259537FD23958AE0289FFA
:1002F00030191124309336012902312D11243595FE
:10030000359527FD33958AE0389F201911242093D5
:10031000370120812902312D11243595359527FD8E
:1003200033958AE0389F20191124209339012081C8
:100330002902812D11248595859527FD83958902B4
:10034000912D11249595959587FD93952AE0929F7F
:100350008019112480933A018091340190913501E4
:10036000803F914020F48CE08093380108958AE02A
:10037000809338010895FC01909114019130A9F007
:1003800090911701913009F0089580911601813004
:10039000E1F0809115018130B9F78081815087FDAE
:1003A00028C0808310921501089580911301813037
:1003B000A1F080911201813019F78181815087FD70
:1003C0001AC0818310921201DBCF80818F5F883148
:1003D00064F4808310921601DCCF81818F5F8C33AF
:1003E00034F4818310921301E4CF1082F3CF118291
:1003F000F9CF87E1D6CF8BE3E4CF809134019091A0
:100400003501803E934028F4909110019130D9F04D
:1004100008951092350110923401809122018F5F6E
:1004200080932201909110019130C9F08C3381F7B3
:1004300010922201809121018F5F8C33C1F0809353
:100440002101913029F720911C012C3309F71092DA
:100450001C0180911B018F5F80931B0108952091E7
:100460001C012F5F20931C018C3379F7E1CF109290
:100470002101809120018F5F883119F08093200144
:10048000C5CF10922001C2CF9091200180911D0113
:10049000981744F081E02091210190911E012917C5
:1004A0000CF0089580E0089580911B0187FD06C03F
:1004B00081E090911C019A300CF0089580E008953D
:1004C0001F920F920FB60F9211240BB60F921F932B
:1004D0002F933F934F935F936F937F938F939F934C
:1004E000AF93BF93CF93DF93EF93FF93E09111010D
:1004F000F0E0EA5CFE4FE081F0E0E050FF4F8081E9
:100500008BBB809111018295807F85BB1E981E9ABE
:100510001FB8779BFECFCFB11C2F1370CC70D0E0EB
:10052000D595C795D595C7956C2F812F0E94F3005F
:1005300010931901C093180180910F01813031F19E
:100540000E94B1009091230189278093230180911B
:1005500034019091350101969093350180933401D7
:10056000FF91EF91DF91CF91BF91AF919F918F91CB
:100570007F916F915F914F913F912F911F910F90BC
:100580000BBE0F900FBE0F901F90189580910E011B
:100590008111DDCF0E94B10080930E01D8CF8FEF83
:1005A00087BB82B980EF84BB80B7886080BF87B784
:1005B000826087BF83B7896083BF80E281BF8DB1CE
:1005C00081658DB9709A78941AE001E08DECF82E6F
:1005D000D1E0CFEF809123018370813009F463C0B3
:1005E000813008F4B4C0823071F480E291E00E945E
:1005F000BB0180E291E00E946C01109235011092E3
:100600003401109222011E3109F45CC01F3108F040
:1006100075C01A3009F4CBC0143109F082C0909132
:10062000200180911D0198173CF09091210180914B
:100630001E0198170CF01EE18091230182FD71C00C
:1006400080910F0191E01AE0813009F47CC088B3F9
:100650008F7088BB9FB9779BFECF8FB1C09AC0982F
:10066000CABBE0911101EF5FE53008F042C0E093B2
:100670001101F0E0EA5CFE4FE081F0E0E050FF4F56
:1006800080818BBB809111018295807F85BB8FE338
:100690009FE10197F1F700C0000080912301837072
:1006A000813009F09DCF8DE191E00E94BB018DE189
:1006B00091E00E946C0180E291E00E94FD011E31F8
:1006C00009F0A4CF00930F0180910E01882309F453
:1006D0007AC010921C0110921B0180911A018F5F49
:1006E00080931A0110920F0110920E0198E018E207
:1006F000AECF10921101E0E0F0E0BCCF1832C1F1B2
:10070000123379F480912001811159C08091210127
:10071000811155C010921C0110921B0110921A01F8
:100720008FCF80910F011F9D912D11249695969545
:10073000969591502D2F01C0220F9A95EAF7922F8E
:10074000813009F084CF88B3806F88BB83CF80E28B
:1007500091E00E94FD0180E291E00E946C01109204
:1007600013011092120110921601109215014BCF35
:100770000093100180911A0184301CF01092100136
:1007800012E38091230182FD03C0109210011AE050
:1007900080911B0187FDC5CF80911C018A300CF22E
:1007A0001092100180910F0194E01EE14DCF8091D5
:1007B000230182FD0DC080910F0191E045CF809112
:1007C0000F0190E141CF94E088B3806F88BB42CFA6
:0E07D00080910F0192E014E137CFF894FFCF33
:0E07DE00C0F9A4B0999282F88090FF00FC0050
:00000001FF
